:100000000C94A5010C94D6010C94D6010C94D60145
:100010000C94D6010C94D6010C94D6010C94D60104
:100020000C94D6010C94D6010C94D6010C94D601F4
:100030000C94D6010C94D6010C94D6010C94D601E4
:100040000C94D6010C94D6010C94D6010C94D601D4
:100050000C94D6010C94D6010C94D6010C94E705AF
:100060000C94D6010C945B060C9431060C94D601CA
:100070000C94D6010C94D6010C94D6010C94D601A4
:100080000C94D6010C94D6010C94D6010C94D60194
:100090000C94D6010C94D6010C94D6010C949106C4
:1000A0000C94D6010C94D6010C94D6010C94D60174
:1000B0000C94D6010C94D6010C94D6010C94D60164
:1000C0000C94D6010C94D6010C94D6010C94D60154
:1000D0000C94D6010C94D6010C94D6010C94D60144
:1000E0000C94D601F301F601E501E901EF012D02BF
:1000F000FA01FE01040208020C02120216021A02A0
:100100002D022002240228020D05120517052105E3
:100110002B05A40535053D0545054F055905630526
:1001200072057C05A405860590059A05A00DB10D04
:100130006B0E730E780E990EA20EB90E0C945D0222
:100140000C94990E0C949A050C94AA020C94730EBC
:100150000C94A4050C942D020C944F050C942402CD
:100160000C9454020C94CA030C9445050C940C0294
:100170000C946B0E0C9435050C94F6010C9421052F
:100180000C9408020C943D030C94EF010C943D0573
:100190000C9428020C9420020C94B8020C94720562
:1001A0000C9412020C944B040C94B90E0C942B0575
:1001B0000C9490050C947C050C9416020C941A0275
:1001C0000C94EE030C94FA010C94CB030C941205DE
:1001D0000C941B040C94A20E0C940D050C94DA03E1
:1001E0000C94F3010C94F0020C9486050C945905C0
:1001F0000C94FE010C9455020C94D20E0C946305E1
:100200000C94B10D0C9404020C9417050C949602F6
:100210000C9453020C94780E0C94E9010C94E501B3
:100220000C94A00D0C9487020000210024002700EC
:100230002A002D00300033000101000004010701F5
:100240000A0100002200250028002B002E003100AA
:10025000340002010000050108010B01000020002C
:100260002300260029002C002F003200000100008E
:100270000301060109010505050507050808080829
:10028000020202020A0A080804040404010101012E
:100290000101010103030303030303030407070729
:1002A0000C0C0C0C0C0C0C0C0202020206060606CE
:1002B000060606060B0B0B0B0B0B0B0B010210209B
:1002C000200808102040102040800201020108048C
:1002D0000201010204081020408080402010080420
:1002E0000201800402018040201008040201080479
:1002F00002010102040810204080010204081020BD
:10030000408000000A0B02090C0D0E0807030401CF
:1003100000000000000000000000000000000000DD
:1003200000000000000000000000000000001211AA
:1003300010000000000000000000000000000000AD
:100340000000000000000000D20E11241FBECFEFFD
:10035000D1E2DEBFCDBF00E00CBF12E0A0E0B2E012
:10036000ECE9F2E200E00BBF02C007900D92AE3E56
:10037000B107D9F726E0AEEEB2E001C01D92A63E6D
:10038000B207E1F711E0C5EAD1E000E006C021972D
:100390000109802FFE010E94A30FC43AD10780E01B
:1003A0000807A9F70E94E90A0C944C110C9400006C
:1003B00090E0FC013197E231F10508F04EC088274A
:1003C000EE58FF4F8F4F0C94A30F809180008F77D2
:1003D00003C0809180008F7D80938000089580917C
:1003E0008000877FF9CF84B58F7702C084B58F7D79
:1003F00084BD08958091B0008F7703C08091B000D4
:100400008F7D8093B0000895809190008F7707C012
:10041000809190008F7D03C080919000877F8093B2
:10042000900008958091A0008F7707C08091A00070
:100430008F7D03C08091A000877F8093A0000895E6
:10044000809120018F7707C0809120018F7D03C0AC
:1004500080912001877F8093200108953FB7F89411
:1004600080915C0390915D03A0915E03B0915F0366
:1004700026B5A89B05C02F3F19F00196A11DB11DFF
:100480003FBFBA2FA92F982F8827820F911DA11D3A
:10049000B11DBC01CD0142E0660F771F881F991F77
:1004A0004A95D1F70895089508958091550390E0F5
:1004B00020915603821B91090895CF92DF92EF920B
:1004C000FF920F931F93CF93DF936C017A018B01FF
:1004D000C0E0D0E0CE15DF0581F0D8016D918D012F
:1004E000D601ED91FC910190F081E02DC6011995A6
:1004F000892B11F02196EECF7E01C701DF91CF91BC
:100500001F910F91FF90EF90DF90CF900895FC0125
:10051000538D448D252F30E0842F90E0821B930B68
:10052000541710F0CF96089501970895FC01918D0E
:10053000828D981761F0828DDF01A80FB11D5D9645
:100540008C91928D9F5F9F73928F90E008958FEFB3
:100550009FEF0895FC01918D828D981731F0828D67
:10056000E80FF11D858D90E008958FEF9FEF0895BE
:10057000FC01918D228D892F90E0805C9F4F821B22
:1005800091098F73992708958FEA93E00E94B8022A
:1005900021E0892B09F420E0822F0895FC01848D4D
:1005A000DF01A80FB11DA35ABF4F2C91848D90E09D
:1005B00001968F739927848FA689B7892C93A08978
:1005C000B1898C91837080648C93938D848D981302
:1005D00006C00288F389E02D80818F7D8083089595
:1005E000EF92FF920F931F93CF93DF93EC0181E083
:1005F000888F9B8D8C8D981305C0E889F98980813F
:1006000085FD26C0F62E0B8D10E00F5F1F4F0F7378
:100610001127E02E8C8DE8120CC00FB607FCFACF24
:10062000E889F989808185FFF5CFCE010E94CE024D
:10063000F1CF8B8DFE01E80FF11DE35AFF4FF082E1
:100640009FB7F8940B8FEA89FB89808180620AC08A
:100650009FB7F894EE89FF896083E889F9898081E2
:100660008370806480839FBF81E090E0DF91CF91B1
:100670001F910F91FF90EF900895CF93DF93EC01BE
:10068000888D8823C9F0EA89FB89808185FD05C0B2
:10069000A889B9898C9186FD0FC00FB607FCF5CFEC
:1006A000808185FFF2CFA889B9898C9185FFEDCF34
:1006B000CE010E94CE02E7CFDF91CF91089580E076
:1006C00090E0892B21F00E94C402811125C080E0B6
:1006D00090E0892B41F080E090E0892B21F00E948E
:1006E000000081111CC080E090E0892B41F080E087
:1006F00090E0892B21F00E940000811113C080E05E
:1007000090E0892BA1F080E090E0892B81F00E949D
:10071000000081110AC008950E940000D8CF0E94F5
:100720000000E1CF0E940000EACF0C940000089581
:1007300085ED8093BC008091BC0084FDFCCF1092BD
:100740008603089540910E03262F30E0240F311DBB
:1007500021323105DCF4209186032430C9F4FC01F8
:1007600080E090E0861758F430910E032191DC016F
:10077000A251BD4FA30FB11D2C930196F3CF8091D1
:100780000E03680F60930E0380E0089581E00895E2
:1007900082E008950895E091560380915503E8178B
:1007A00030F4F0E0EF5CFC4F808190E008958FEF33
:1007B0009FEF08959091560380915503981750F438
:1007C000E92FF0E0EF5CFC4F208130E09F5F9093D9
:1007D000560302C02FEF3FEFC9010895CF92DF9279
:1007E000EF92FF920F931F93CF93DF937C01CB0186
:1007F0008A0120918703222389F0EB016B01C40E4B
:10080000D51ECC15DD0569F06991D701ED91FC91FC
:100810000190F081E02DC7011995F3CF642F0E945C
:10082000A203C801DF91CF911F910F91FF90EF902C
:10083000DF90CF900895CF93DF931F92CDB7DEB7AF
:100840006983209187032223D1F02091AA032032CB
:1008500040F021E030E0FC013383228380E090E02F
:1008600015C080918803E82FF0E0E757FC4F99818D
:1008700090838F5F809388038093AA0305C061E013
:10088000CE0101960E94A20381E090E00F90DF91DB
:10089000CF910895089580E090E008950E94471157
:1008A000CF93DF93282F30E0F901EE5FFC4F849166
:1008B000F901E454FD4FD491F901EA58FD4FC49178
:1008C000CC2391F081110E94D801EC2FF0E0EE0FC3
:1008D000FF1FE45AFD4FA591B491EC91ED2381E007
:1008E00090E021F480E002C080E090E0DF91CF91C1
:1008F00008951F93CF93DF93282F30E0F901EE5F27
:10090000FC4F8491F901E454FD4FD491F901EA5868
:10091000FD4FC491CC23C1F0162F81110E94D80144
:10092000EC2FF0E0EE0FFF1FEE5BFD4FA591B491B1
:100930009FB7F894111104C08C91D095D82302C0B0
:10094000EC91DE2BDC939FBFDF91CF911F91089537
:10095000CF93DF9390E0FC01E454FD4F2491FC0120
:10096000EA58FD4F8491882361F190E0880F991F28
:10097000FC01E85DFD4FC591D491FC01EE5BFD4F9C
:10098000A591B491611109C09FB7F8948881209511
:1009900082238883EC912E230BC0623061F49FB7D1
:1009A000F8948881322F309583238883EC912E2B05
:1009B0002C939FBF06C08FB7F894E8812E2B288315
:1009C0008FBFDF91CF9108951F93CF93DF93182F9F
:1009D000EB0161E00E94A804209711F460E004C0DC
:1009E000CF3FD10539F461E0812FDF91CF911F9185
:1009F0000C947904E12FF0E0EE5FFC4FE4918E2F30
:100A000090E0FC013197E231F10508F09DC08827A4
:100A1000EC57FF4F8F4F0C94A30F84B5806884BDB3
:100A2000C7BD97C084B5806284BDC8BD92C08091A7
:100A30008000806880938000D0938900C0938800F4
:100A400088C080918000806280938000D0938B006A
:100A5000C0938A007EC0809180008860809380006F
:100A6000D0938D00C0938C0074C08091B0008068DA
:100A70008093B000C093B3006CC08091B0008062DE
:100A80008093B000C093B40064C0809190008068EF
:100A900080939000D0939900C09398005AC08091A1
:100AA0009000806280939000D0939B00C0939A0046
:100AB00050C080919000886080939000D0939D00FA
:100AC000C0939C0046C08091A00080688093A000E5
:100AD0008091A0008F7B8093A000D093A900C09349
:100AE000A80037C08091A00080628093A000D093BE
:100AF000AB00C093AA002DC08091A00088608093B5
:100B0000A000D093AD00C093AC0023C08091200121
:100B1000806880932001D0932901C093280119C0D7
:100B200080912001806280932001D0932B01C0939B
:100B30002A010FC080912001886080932001D0930A
:100B40002D01C0932C0105C0C038D1050CF04BCF4E
:100B500045CFDF91CF911F9108958F929F92AF92D1
:100B6000BF92CF92DF92EF92FF926B017C010E94C5
:100B70002E024B015C01C114D104E104F104F1F037
:100B80000E942E02DC01CB0188199909AA09BB0930
:100B9000883E9340A105B10570F321E0C21AD10847
:100BA000E108F10888EE880E83E0981EA11CB11CB4
:100BB000C114D104E104F10419F7DDCFFF90EF90E7
:100BC000DF90CF90BF90AF909F908F9008951F922D
:100BD0000F920FB60F9211242F933F938F939F93F1
:100BE000AF93BF938091AB039091AC03A091AD0301
:100BF000B091AE0330915B0323E0230F2D3720F437
:100C00000196A11DB11D05C026E8230F0296A11D66
:100C1000B11D20935B038093AB039093AC03A0932F
:100C2000AD03B093AE0380915C0390915D03A091FE
:100C30005E03B0915F030196A11DB11D80935C031B
:100C400090935D03A0935E03B0935F03BF91AF9158
:100C50009F918F913F912F910F900FBE0F901F90FA
:100C600018951F920F920FB60F9211240BB60F9288
:100C70002F933F934F935F936F937F938F939F93A4
:100C8000AF93BF93EF93FF938FEA93E00E94CE025E
:100C9000FF91EF91BF91AF919F918F917F916F9154
:100CA0005F914F913F912F910F900BBE0F900FBE10
:100CB0000F901F9018951F920F920FB60F9211244C
:100CC0000BB60F922F938F939F93EF93FF93E09127
:100CD000BF03F091C0038081E091C503F091C6038A
:100CE00082FD12C090818091C8038F5F8F73209125
:100CF000C903821751F0E091C803F0E0E155FC4FC1
:100D0000958F8093C80301C08081FF91EF919F91DF
:100D10008F912F910F900BBE0F900FBE0F901F90D1
:100D200018951F920F920FB60F9211240BB60F92C7
:100D30002F933F934F935F936F937F938F939F93E3
:100D4000AF93BF93EF93FF938091B900887F803674
:100D500009F49CC068F5883209F45BC090F48031D6
:100D600009F454C038F4882309F4F6C0883009F433
:100D70004DC0F6C0883109F44CC0803209F45DC022
:100D8000EFC0803409F468C048F4803309F455C0DA
:100D9000883309F0E5C080938403D8C0803509F416
:100DA0004FC0883509F45DC0883409F0D9C0D6C079
:100DB000883909F4C7C0A8F4883709F467C038F443
:100DC000883609F463C0803709F460C0C9C0883828
:100DD00009F4B8C0803909F45FC0803809F0C0C098
:100DE0005BC0803B09F486C038F4803A09F466C0E1
:100DF000883A09F47FC0B4C0803C09F4A7C0883C9D
:100E000009F4A4C0883B09F48AC0AAC08091610398
:100E100010C09091830380918203981770F5E09140
:100E2000830381E08E0F80938303F0E0EE59FC4F43
:100E300080818093BB0085EC86C0809384038EC044
:100E4000E091830381E08E0F809383038091BB0048
:100E5000F0E0EE59FC4F80839091830380918203F0
:100E60006EC0E091830381E08E0F809383038091B5
:100E7000BB00F0E0EE59FC4F808380918503811127
:100E80006DC081E08093600384EA61C083E0809359
:100E9000860310923003CFCF80913003803208F068
:100EA00051C0E091300381E08E0F80933003809138
:100EB000BB00F0E0E05FFC4F8083BDCF85EC80930A
:100EC000BC001092860380913003803230F4E091B0
:100ED0003003F0E0E05FFC4F10826091300370E07F
:100EE000E0915103F091520380E193E01995109243
:100EF000300336C084E08093860310920F03109273
:100F00000E03E0915303F0915403199580910E0361
:100F1000811105C081E080930E031092EE02E091F2
:100F20000F0381E08E0F80930F03F0E0E251FD4F3D
:100F300080818093BB0090910F0380910E039817DE
:100F400008F479CF85E88093BC000AC085EC8093D3
:100F5000BC001092860304C0109284030E94980380
:100F6000FF91EF91BF91AF919F918F917F916F9181
:100F70005F914F913F912F910F900BBE0F900FBE3D
:100F80000F901F901895CF93DF9360E080919B04A2
:100F90000E94A80480919B040E945004EC0160E030
:100FA00080919C040E94A80480919C040E9450049B
:100FB000AC0121E030E0CD2B11F420E030E0220F35
:100FC000331F81E0452B09F480E0822BDF91CF9124
:100FD00008951F93CF93DF93182FC1EAD4E061E007
:100FE00089810E94A804612F8981DF91CF911F918F
:100FF0000C947904282F3091AA03313208F04AC0AA
:10100000809186038111FCCF9091A90342E0409327
:101010008603209385032FEF20938403109283038C
:1010200030938203E9E8F3E0A2E6B3E020E0321770
:1010300021F041914D932F5FFACF109261032091DF
:101040006103990F922B909361039091600391300B
:1010500061F410926003909161039093BB009091B2
:10106000BC0093FDF8CF95EC01C095EE9093BC00C9
:10107000909186039230E1F3909184039F3F79F041
:1010800080918403803241F080918403803331F079
:1010900084E005C081E003C082E001C083E01092DB
:1010A00088031092AA03109287030895CF93DF93C9
:1010B000EB0190919A0421E0209387039093A90378
:1010C000109288031092AA03682F8CE494E00E9487
:1010D0001B04813061F441E050E0BE018CE494E0F7
:1010E0000E94EE0381E0DF91CF910C94FA078FEF1D
:1010F000DF91CF9108952F923F924F925F926F921E
:101100007F928F929F92AF92BF92CF92DF92EF9297
:10111000FF920F931F93CF93DF93CDB7DEB7C35BDF
:10112000D1090FB6F894DEBF0FBECDBF8BE280931E
:10113000C90586E5E0E0F2E0DE01A95ABF4F019063
:101140000D928A95E1F786E5E6E5F2E0DE0111967B
:1011500001900D928A95E1F79E012F5F3F4FC35595
:10116000DF4F39832883CD5AD040CE01895A9F4F13
:10117000C055DF4F99838883C05BD040212C312C30
:101180008091C90590E0281639060CF0B9C0C05509
:10119000DF4FE881F981C05BD04021913191C0558A
:1011A000DF4FF983E883C05BD040C355DF4FE88150
:1011B000F981CD5AD040121613060CF072C080810E
:1011C00091818C01000F111F080F191F032E000CB5
:1011D000440B550B60E472E48FE090E00E94840FB2
:1011E00069017A01F091CA05C155DF4FF883CF5AE2
:1011F000D04061E08F2F0E94A80428EE33E0D80190
:101200000E94AB0F2B013C018601D7FE02C00F5F8D
:101210001F4F15950795C801880F991F880F991FB3
:101220009C0125503109CE54DF4F39832883C25B9E
:10123000D0400D2C000CEE08FF08812C912C54019D
:1012400084149504A604B704C8F561E0C155DF4FC6
:101250008881CF5AD0400E9479040230110540F0B5
:10126000CE54DF4F88819981C25BD0400197F1F75E
:1012700060E0C155DF4F8881CF5AD0400E94790489
:101280000230110540F0CE54DF4F88819981C25B56
:10129000D0400197F1F7A8958C0C9D1CAE1CBF1C8B
:1012A000CFCF60817181CB01880F991F680F791FA3
:1012B000072E000C880B990B0E94AD051091CA05F2
:1012C00061E0812F0E94A80460E0812F0E947904D0
:1012D0006EE170E080E090E00E94AD05FFEF2F1A14
:1012E0003F0AC355DF4F28813981CD5AD0402E5F48
:1012F0003F4FC355DF4F39832883CD5AD04040CF6D
:10130000CD54DF4F0FB6F894DEBF0FBECDBFDF91D7
:10131000CF911F910F91FF90EF90DF90CF90BF90F2
:10132000AF909F908F907F906F905F904F903F9085
:101330002F900895EF92FF920F931F93CF93DF9317
:10134000FC016F3F710519F014F06FEF70E0EB01D5
:1013500061307F4F14F4C1E0DFEF808591858C17F9
:101360009D07D1F1D187C087D583C483DF01AF58F2
:10137000BF4FCF018E589F4F7C018F0100591F4FE7
:10138000D7FF12C060E08C910E9479048FE090E05A
:101390000197F1F761E0F70180810E9479046627E7
:1013A00077276C1B7D0B0EC061E08C910E94790445
:1013B0008FE090E00197F1F760E0F70180810E94F3
:1013C0007904BE01F8018081DF91CF911F910F91C7
:1013D000FF90EF900C94E404DF91CF911F910F9157
:1013E000FF90EF9008959F92AF92BF92CF92DF92BD
:1013F000EF92FF920F931F93CF93DF93EC01FC01C9
:10140000EC58FF4F608385E0982E969EF0011124E2
:10141000E455FD4F80818E0102591F4FD8018C93F6
:101420005E01BFE6AB0EB11C9181D5019C93119674
:1014300092819C936E01B1E7CB0ED11C9381D601B2
:101440009C937E01B2E7EB0EF11C9481F70190832F
:101450003697108262E00E94A80462E0D5018C9168
:101460000E94A80461E0F60180810E94A80461E066
:10147000D7018C910E94A8041EA21FA218A619A62B
:1014800084EF91E099878887188289E090E09B83B8
:101490008A8388E691E1ADE1B2E48E8B9F8BA88FC1
:1014A000B98FF8018081823119F4359690821AC083
:1014B000833111F484E003C0843131F483E0FE0110
:1014C000ED58FF4F80830EC0853111F482E0F7CFD5
:1014D000833011F481E0F3CF823021F4FE01ED5826
:1014E000FF4F108260E070E0CE010E949A091EA2B8
:1014F0001FA218A619A62FB7F8948091AB0390915C
:10150000AC03A091AD03B091AE032FBFC958DF4F1C
:1015100088839983AA83BB83DF91CF911F910F9119
:10152000FF90EF90DF90CF90BF90AF909F90089585
:1015300060E070E08FEA94E00E949A0960E070E059
:1015400080E395E00C949A09CF92DF92EF92FF929C
:101550000F931F93E82FF92F05C00150110921099E
:10156000310961F1908196239417B9F305C00150B8
:1015700011092109310911F1908196239413F7CFB4
:10158000C12CD12CE12CF12C0AC08FEFC81AD80A3B
:10159000E80AF80A0C151D052E053F0579F0808133
:1015A0008623841791F36C2D7D2D8E2D9F2D1F91F9
:1015B0000F91FF90EF90DF90CF90089560E070E082
:1015C00080E090E01F910F91FF90EF90DF90CF901F
:1015D0000895CF93DF93CDB7DEB727970FB6F89472
:1015E000DEBF0FBECDBF789484B5826084BD84B564
:1015F000816084BD85B5826085BD85B5816085BD0E
:1016000080916E00816080936E00109281008091C5
:10161000810082608093810080918100816080934D
:101620008100809180008160809380008091B10072
:1016300084608093B1008091B00081608093B0009D
:1016400080919100826080939100809191008160EF
:1016500080939100809190008160809390008091B0
:10166000A10082608093A1008091A100816080939D
:10167000A1008091A00081608093A0008091210151
:1016800082608093210180912101816080932101FA
:101690008091200181608093200180917A00846094
:1016A00080937A0080917A00826080937A008091A2
:1016B0007A00816080937A0080917A0080688093BC
:1016C0007A001092C100E091BF03F091C00382E064
:1016D0008083E091BB03F091BC031082E091BD03D5
:1016E000F091BE0380E180831092C703E091C303B1
:1016F000F091C40386E08083E091C103F091C203BE
:10170000808180618083E091C103F091C203808178
:1017100088608083E091C103F091C203808180687A
:101720008083E091C103F091C20380818F7D80832B
:1017300080E090E0A3E8B2E480935E0490935F04BD
:10174000A0936004B0936104109262041092630449
:10175000109264041092650410926604109267045B
:10176000109268041092690410926A0410926B043B
:1017700010926C0410926D0410926E0410926F041B
:1017800010927004109271041092720410927304FB
:1017900010927404109275041092760410927704DB
:1017A000109278041092790410927B0410927A04BB
:1017B00010927D0410927C0410927F0410927E049B
:1017C000109280041092810410928204109283047B
:1017D000109284041092850410928604109287045B
:1017E000109288041092890410928A0410928B043B
:1017F0001092560310925503109288031092AA0378
:101800001092860311E0109385031092600361E04B
:1018100084E10E94790461E085E10E94790480916D
:10182000B9008E7F8093B9008091B9008D7F80933D
:10183000B90088E48093B80085E48093BC0083E518
:1018400092E0909354038093530384E592E0909345
:1018500052038093510368EC70E080E090E00E94B6
:10186000AD051982BE016F5F7F4F8BE60E9456085F
:1018700064E670E080E090E00E94AD051A83BE014E
:101880006E5F7F4F8AE10E94560888E08B83BE011D
:101890006D5F7F4F8BE10E94560864E670E080E048
:1018A00090E00E94AD0564EF662E77247394812C3E
:1018B000912C5401C12CD12C76011C821D821E82D8
:1018C0001F825524539475EE272EE5EC3E2E809111
:1018D0009A04509287038093A90310928803109270
:1018E000AA0363E48CE494E00E941B04813009F4B1
:1018F00088C080918C0490918D049827892798271F
:10190000092E000CAA0BBB0B2C813D814E815F81FF
:10191000280F391F4A1F5B1F2C833D834E835F8333
:1019200080918E0490918F04982789279827092EFB
:10193000000CAA0BBB0BC80ED91EEA1EFB1E809121
:10194000900490919104982789279827092E000CDC
:10195000AA0BBB0B880E991EAA1EBB1E31E0631A90
:10196000710809F0B4CF94EF492E55245394612C9B
:10197000712C6C817D818E819F81A30192010E94D7
:10198000840FCA01B9010E94921060938004709381
:1019900081048093820490938304C701B601A3015C
:1019A00092010E94840FCA01B9010E9492106093B3
:1019B0008404709385048093860490938704C50102
:1019C000B401A30192010E94840FCA01B9010E94CF
:1019D0009210609388047093890480938A04909392
:1019E0008B0464E670E080E090E00E94AD058824FE
:1019F0008394912C33E0A32EB12C43E2242E312C7E
:101A00007AC080E00E94FA07811173CF80919A0416
:101A1000909186039111FCCF5092860350928503DA
:101A20004FEF409384031092830355E05093820359
:101A30005092610390916103880F892B8093610319
:101A400080916003813069F410926003809161039A
:101A50008093BB008091BC0083FDF8CF3092BC0026
:101A600002C02092BC00809186038130E1F3809116
:101A70008303863018F44090830302C056E0452E5D
:101A8000E2E6F3E0A1E3B3E080E0841521F0919178
:101A90009D938F5FFACF10925603409255030CE846
:101AA00014E080915603481609F423CF84E00239EC
:101AB000180709F41ECF8CE494E00E94DA03F801C1
:101AC00081938F01EECF8FEA93E00E9496028133DB
:101AD000C9F490925A0380925903109258031092BD
:101AE00057038091590390915A030097C9F00197C9
:101AF000D1F00E945F038FEA93E00E94B802892B25
:101B000081F3E1CF853329F40E94980A0E947B0873
:101B1000E8CF863331F710925A0310925903E1CF80
:101B20000E94980AE6CFE0915703F0915803E830FD
:101B3000F105F8F68827EA56FF4F8F4F0C94A30F54
:101B40006CE47FEF8FEA94E00E949A0964EB70E006
:101B500080E395E00E949A0990925803809257037F
:101B6000C8CF2FB7F8948091AB039091AC03A091AC
:101B7000AD03B091AE032FBF4091A7045091A804CC
:101B80006091A9047091AA04841B950BA60BB70B56
:101B90004897A105B10518F081E08093A6048091D3
:101BA000A604882309F461C02FB7F8948091AB0391
:101BB0009091AC03A091AD03B091AE032FBF809381
:101BC000A7049093A804A093A904B093AA04109228
:101BD000A60480E00E94E907C5010197F1F781E0C2
:101BE0000E94E907C1010197F1F780E00E94E9072F
:101BF00060E08091A2040E94A8048091A20490E079
:101C0000FC01E454FD4F6491FC01EA58FD4FE4915E
:101C1000F0E0EE0FFF1FE45AFD4F8591949100E430
:101C200012E42FE030E0462F0E94A40A61157105EE
:101C30008105910551F02B013C01EFEF4E1A5E0A30
:101C40006E0A7E0AFFE07F2203C0412C512C320134
:101C5000C301B2010E9492106093AB047093AC0474
:101C60008093AD049093AE040CC06091AB0470916E
:101C7000AC048091AD049091AE040E945A102B01E7
:101C80003C01C301B2010E94921020E030E048E61E
:101C900052E40E94E80F6B017C0120E030E048EC48
:101CA00053E40E94421187FF13C045284628472865
:101CB00079F020E030E040E251E4C701B6010E9433
:101CC000E30F87FF05C0B0925803A092570311CFCE
:101CD00022E030E022C00E94C307833009F444C0F0
:101CE00044E050E021C00E94980A87E090E055C08F
:101CF0000E94980A0E94C307813069F028F0823060
:101D000089F0833089F1F5CEE7E0F0E0F0935803F5
:101D1000E0935703EECE26E030E030935803209353
:101D20005703E7CE45E050E05093580340935703E4
:101D3000E0CE6AE67FEF8FEA94E00E949A096AE6B5
:101D40007FEF08C066E970E08FEA94E00E949A098C
:101D500066E970E080E395E00E949A0960E971E02D
:101D600080E090E00E94AD05109258031092570356
:101D7000C0CE6AE570E08FEA94E00E949A0966EAB4
:101D80007FEF80E395E00E949A0964EF71E080E0C4
:101D900090E00E94AD0585E090E090935803809319
:101DA0005703A7CE81E090E09093CC058093CB05BC
:101DB0001092CD061092CE061092CF061092D00649
:101DC0001092D1061092D2061092D3061092D40629
:101DD0001092D5061092D6061092D7061092D80609
:101DE0001092D9061092DA061092DC061092DB06E9
:101DF0001092DD061092DE061092DF061092E006C9
:101E00001092E1061092E2061092E3061092E406A8
:101E10001092E506EFEAF3E01382128288EE93E077
:101E2000A0E0B0E084839583A683B7832EEC32E0F4
:101E30003183208325EC30E03587248724EC30E0A3
:101E40003787268720EC30E0318B208B21EC30E087
:101E5000338B228B22EC30E0358B248B26EC30E068
:101E6000378B268B118E128E138E148EECE4F4E0D9
:101E70001382128284839583A683B78380EE92E0D7
:101E800091838083E1EAF4E08CE3808381E48183C1
:101E90008AE08283EBE9F4E08DE3808382E481834E
:101EA00089E082831092B1051092B2051092B305B9
:101EB0001092B5058093B6051092BB051092BC0533
:101EC0001092BD051092BF058093C00561E08FEAB6
:101ED00094E00E94F30962E080E395E00E94F30938
:101EE000E5ECF5E01082118212828DE28093CA0542
:101EF000E8E5F4E085E0808384E0818381E082830B
:101F000089E680939A040895052E97FB1EF40094A9
:101F10000E949B0F57FD07D00E94B20F07FC03D011
:101F20004EF40C949B0F50954095309521953F4F62
:101F30004F4F5F4F089590958095709561957F4FB5
:101F40008F4F9F4F0895EE0FFF1F881F8BBF079085
:101F5000F691E02D19940E94D40FB7FF0895821BCB
:101F6000930B0895A1E21A2EAA1BBB1BFD010DC005
:101F7000AA1FBB1FEE1FFF1FA217B307E407F50739
:101F800020F0A21BB30BE40BF50B661F771F881F15
:101F9000991F1A9469F760957095809590959B01AB
:101FA000AC01BD01CF010895A29FB001B39FC00154
:101FB000A39F700D811D1124911DB29F700D811D75
:101FC0001124911D08950E94CD1008F481E0089518
:101FD0000E94FC0F0C9408110E94011158F00E94FD
:101FE000FA1040F029F45F3F29F00C94F1105111E0
:101FF0000C943C110C94F7100E94191168F399236A
:10200000B1F3552391F3951B550BBB27AA276217F4
:102010007307840738F09F5F5F4F220F331F441F01
:10202000AA1FA9F335D00E2E3AF0E0E832D0915035
:102030005040E695001CCAF72BD0FE2F29D0660F22
:10204000771F881FBB1F261737074807AB07B0E865
:1020500009F0BB0B802DBF01FF2793585F4F3AF06B
:102060009E3F510578F00C94F1100C943C115F3FA9
:10207000E4F3983ED4F3869577956795B795F795F1
:102080009F5FC9F7880F911D9695879597F90895D9
:10209000E1E0660F771F881FBB1F62177307840775
:1020A000BA0720F0621B730B840BBA0BEE1F88F784
:1020B000E09508950E9461106894B1110C943C1150
:1020C00008950E94211188F09F5798F0B92F992701
:1020D000B751B0F0E1F0660F771F881F991F1AF013
:1020E000BA95C9F714C0B13091F00E943B11B1E02C
:1020F00008950C943B11672F782F8827B85F39F02B
:10210000B93FCCF3869577956795B395D9F73EF4AB
:1021100090958095709561957F4F8F4F9F4F089553
:10212000E89409C097FB3EF4909580957095619571
:102130007F4F8F4F9F4F9923A9F0F92F96E9BB2727
:102140009395F695879577956795B795F111F8CFA3
:10215000FAF4BB0F11F460FF1BC06F5F7F4F8F4F0E
:102160009F4F16C0882311F096E911C0772321F004
:102170009EE8872F762F05C0662371F096E8862F9C
:1021800070E060E02AF09A95660F771F881FDAF7F3
:10219000880F9695879597F90895990F0008550F20
:1021A000AA0BE0E8FEEF16161706E807F907C0F0DD
:1021B00012161306E407F50798F0621B730B840BE5
:1021C000950B39F40A2661F0232B242B252B21F4BF
:1021D00008950A2609F4A140A6958FEF811D811D5F
:1021E000089597F99F6780E870E060E008959FEF99
:1021F00080EC089500240A9416161706180609069E
:10220000089500240A94121613061406050608956C
:10221000092E0394000C11F4882352F0BB0F40F4F4
:10222000BF2B11F460FF04C06F5F7F4F8F4F9F4F34
:10223000089557FD9058440F551F59F05F3F71F0B6
:102240004795880F97FB991F61F09F3F79F087951D
:102250000895121613061406551FF2CF4695F1DFA6
:1022600008C0161617061806991FF1CF8695710536
:10227000610508940895E894BB2766277727CB016A
:1022800097F908950E94CD1008F48FEF089581E02A
:0C22900090E0F8940C944C11F894FFCFEF
:10229C004B022A02EE0172010000720172017201FE
:1022AC0072017201EE01EE01EE01EE01B801EE01D8
:1022BC008801000088018801880188018801EE01ED
:1022CC00EE01EE01EE012A024B02B8010000B8014A
:1022DC00B801B801B801B8014B024B024B024B02DA
:1022EC00930293022A02C800C80064003200320034
:1022FC003200320032003200320032003200640010
:10230C0032006400640032003200320032003200CD
:10231C0032003200320032003200640032006400BD
:10232C0064003200320032003200320032003200DF
:10233C00320032006400320064002C010000000006
:10234C0000132A0B3130122B0A2F2E000000000034
:10235C000000000000000000000000000000F0027F
:10236C005D0287023D03B8029602AA02000000003B
:0E237C001B04EE034B04CA035502DA03CB0325
:00000001FF
