:100000000C94CB010C94FC010C94FC010C94FC01AD
:100010000C94FC010C94FC010C94FC010C94FC016C
:100020000C94FC010C94FC010C94FC010C94FC015C
:100030000C94FC010C94FC010C94FC010C94FC014C
:100040000C94FC010C94FC010C94FC010C94FC013C
:100050000C94FC010C94FC010C94FC010C948B0C92
:100060000C94FC010C946F040C9445040C94FC015A
:100070000C94FC010C94FC010C94FC010C94FC010C
:100080000C94FC010C94FC010C94FC010C94FC01FC
:100090000C94FC010C94FC010C94FC010C94A50440
:1000A0000C94FC010C94FC010C94FC010C94FC01DC
:1000B0000C94FC010C94FC010C94FC010C94FC01CC
:1000C0000C94FC010C94FC010C94FC010C94FC01BC
:1000D0000C94FC010C94FC010C94FC010C94FC01AC
:1000E0000C94FC01660FBF0F691075108810A910E1
:1000F000B210C910F708FA08E908ED08F308310949
:10010000FE08020908090C09100916091A091E0936
:100110003109240928092C09390A3E0A430A4D0AE3
:10012000570AD00A610A690A710A7B0A850A8F0A8E
:100130009E0AA80AD00AB20ABC0AC60A084AD73BD5
:100140003BCE016E84BCBFFDC12F3D6C74319ABDA6
:1001500056833DDA3D00C77F11BED9E4BB4C3E91CA
:100160006BAAAABE000000803F05A84CCDB2D44EB9
:10017000B93836A9020C50B9918688083CA6AAAABB
:100180002ABE000000803F000C94B2100C94C603FD
:100190000C94E0020C945B020C94E9080C947B0A2A
:1001A0000C94ED080C94FE010C94F6030C941A09BF
:1001B0000C9416090C94F7080C948F0A0C944D02B9
:1001C0000C940C090C946D030C943E0A0C94690A6F
:1001D0000C942C090C94FE080C9402090C94BC0A93
:1001E0000C947D030C949E0A0C94660F0C94C91019
:1001F0000C94BF0F0C94430A0C941E090C946E03CC
:100200000C9469100C942A020C9491030C94610ACA
:100210000C9475100C94850A0C9439020C9493027A
:100220000C944D0A0C94710A0C94570A0C94390AD8
:100230000C9408090C94D00A0C94FF010C94F30858
:100240000C9499030C94A9100C94C60A0C942809D8
:100250000C9424090C94A80A0C94BC130C94310936
:100260000C9410090C9488100C94B20A0C94FA089F
:100270000C94000200002100240027002A002D0019
:100280003000330001010000040107010A010000F1
:100290002200250028002B002E003100340002012E
:1002A0000000050108010B010000200023002600CA
:1002B00029002C002F00320000010000030106017C
:1002C00009010505050507050808080802020202DC
:1002D0000A0A0808040404040101010101010101E2
:1002E0000303030303030303040707070C0C0C0CAD
:1002F0000C0C0C0C02020202060606060606060696
:100300000B0B0B0B0B0B0B0B010210202008081022
:100310002040102040800201020108040201010275
:10032000040810204080804020100804020180044E
:1003300002018040201008040201080402010102A9
:1003400004081020408001020408102040800000B2
:100350000A0B02090C0D0E0807030401000000003F
:10036000000000000000000000000000000000008D
:10037000000000000000000000001211100000004A
:10038000000000000000000000000000000000006D
:1003900000000000BC1311241FBECFEFD1E2DEBF6E
:1003A000CDBF00E00CBF13E0A0E0B2E0E2E8F1E373
:1003B00000E00BBF02C007900D92A030B107D9F743
:1003C00027E0A0E0B3E001C01D92A231B207E1F73F
:1003D00011E0CBECD1E000E006C021970109802FAD
:1003E000FE010E94AF14CA3CD10780E00807A9F7BC
:1003F0000E941A0D0C94BF180C94000008950895E3
:10040000CF92DF92EF92FF920F931F93CF93DF93E0
:100410006C017A018B01C0E0D0E0CE15DF0581F0E0
:10042000D8016D918D01D601ED91FC910190F08183
:10043000E02DC6011995892B11F02196EECF7E0192
:10044000C701DF91CF911F910F91FF90EF90DF9047
:10045000CF900895FC01538D448D252F30E0842FDB
:1004600090E0821B930B541710F0CF9608950197DC
:100470000895FC01918D828D981761F0828DDF01C6
:10048000A80FB11D5D968C91928D9F5F9F73928F87
:1004900090E008958FEF9FEF0895FC01918D828D7C
:1004A000981731F0828DE80FF11D858D90E0089549
:1004B0008FEF9FEF0895FC01918D228D892F90E0A1
:1004C000805C9F4F821B91098F739927089582ED5D
:1004D00093E00E945B0221E0892B09F420E0822F47
:1004E0000895FC01848DDF01A80FB11DA35ABF4FF1
:1004F0002C91848D90E001968F739927848FA68923
:10050000B7892C93A089B1898C91837080648C9376
:10051000938D848D981306C00288F389E02D808125
:100520008F7D80830895EF92FF920F931F93CF9357
:10053000DF93EC0181E0888F9B8D8C8D981305C033
:10054000E889F989808185FD26C0F62E0B8D10E0A3
:100550000F5F1F4F0F731127E02E8C8DE8120CC018
:100560000FB607FCFACFE889F989808185FFF5CFBE
:10057000CE010E947102F1CF8B8DFE01E80FF11DBB
:10058000E35AFF4FF0829FB7F8940B8FEA89FB89FB
:10059000808180620AC09FB7F894EE89FF896083EA
:1005A000E889F98980818370806480839FBF81E0BE
:1005B00090E0DF91CF911F910F91FF90EF90089500
:1005C000CF93DF93EC01888D8823C9F0EA89FB89FA
:1005D000808185FD05C0A889B9898C9186FD0FC0F1
:1005E0000FB607FCF5CF808185FFF2CFA889B989C6
:1005F0008C9185FFEDCFCE010E947102E7CFDF9194
:10060000CF91089580E090E0892B21F00E9467024D
:10061000811125C080E090E0892B41F080E090E0DE
:10062000892B21F00E94000081111CC080E090E025
:10063000892B41F080E090E0892B21F00E9400009E
:10064000811113C080E090E0892BA1F080E090E060
:10065000892B81F00E94000081110AC008950E9438
:100660000000D8CF0E940000E1CF0E940000EACF36
:100670000C940000089585ED8093BC008091BC002F
:1006800084FDFCCF1092AD03089540912003262FE6
:1006900030E0240F311D21323105DCF42091AD030F
:1006A0002430C9F4FC0180E090E0861758F43091C2
:1006B00020032191DC01A050BD4FA30FB11D2C934D
:1006C0000196F3CF80912003680F6093200380E0B0
:1006D000089581E0089582E008950895E0918503EA
:1006E00080918603E81730F4F0E0EB59FC4F8081ED
:1006F00090E008958FEF9FEF08959091850380918A
:100700008603981750F4E92FF0E0EB59FC4F208155
:1007100030E09F5F9093850302C02FEF3FEFC90148
:1007200008958091860390E020918503821B9109B2
:100730000895CF92DF92EF92FF920F931F93CF9382
:10074000DF937C01CB018A012091AE03222389F043
:10075000EB016B01C40ED51ECC15DD0569F0699166
:10076000D701ED91FC910190F081E02DC701199521
:10077000F3CF642F0E944503C801DF91CF911F91F1
:100780000F91FF90EF90DF90CF900895CF93DF937C
:100790001F92CDB7DEB769832091AE032223D1F03B
:1007A0002091D103203240F021E030E0FC0133837E
:1007B000228380E090E015C08091AF03E82FF0E045
:1007C000E055FC4F998190838F5F8093AF038093B6
:1007D000D10305C061E0CE0101960E94450381E08E
:1007E00090E00F90DF91CF910895089580E090E020
:1007F00008950E94BA18CF92DF92EF92FF926C0197
:1008000061E070E080E090E00E94320B0D2C000C63
:10081000EE08FF08F7FE0EC06DE282ED93E00E9445
:10082000930266277727CB016C197D098E099F09F2
:100830004AE003C04AE0C701B6010E9497068EEE67
:1008400092E00E94850660914F0370915003809161
:1008500051039091520342E00E94D8068EEE92E03E
:100860000E94850660914B0370914C0380914D036B
:1008700090914E0342E00E94D80680EF92E0FF90F4
:10088000EF90DF90CF900C9485061F920F920FB6D9
:100890000F9211240BB60F922F933F934F935F93B8
:1008A0006F937F938F939F93AF93BF93EF93FF9338
:1008B00082ED93E00E947102FF91EF91BF91AF91A1
:1008C0009F918F917F916F915F914F913F912F9168
:1008D0000F900BBE0F900FBE0F901F9018951F9298
:1008E0000F920FB60F9211240BB60F922F938F9386
:1008F0009F93EF93FF93E091E203F091E3038081F4
:10090000E091E803F091E90382FD12C090818091AB
:10091000EB038F5F8F732091EC03821751F0E0910E
:10092000EB03F0E0EE52FC4F958F8093EB0301C098
:100930008081FF91EF919F918F912F910F900BBE2E
:100940000F900FBE0F901F9018951F920F920FB629
:100950000F9211240BB60F922F933F934F935F93F7
:100960006F937F938F939F93AF93BF93EF93FF9377
:100970008091B900887F803609F49CC068F5883280
:1009800009F45BC090F4803109F454C038F4882332
:1009900009F4F6C0883009F44DC0F6C0883109F476
:1009A0004CC0803209F45DC0EFC0803409F468C0E7
:1009B00048F4803309F455C0883309F0E5C08093CA
:1009C000AB03D8C0803509F44FC0883509F45DC049
:1009D000883409F0D9C0D6C0883909F4C7C0A8F452
:1009E000883709F467C038F4883609F463C0803763
:1009F00009F460C0C9C0883809F4B8C0803909F466
:100A00005FC0803809F0C0C05BC0803B09F486C07D
:100A100038F4803A09F466C0883A09F47FC0B4C05B
:100A2000803C09F4A7C0883C09F4A4C0883B09F4C1
:100A30008AC0AAC08091880310C09091AA038091B7
:100A4000A903981770F5E091AA0381E08E0F8093B7
:100A5000AA03F0E0E757FC4F80818093BB0085EC50
:100A600086C08093AB038EC0E091AA0381E08E0F15
:100A70008093AA038091BB00F0E0E757FC4F80838E
:100A80009091AA038091A9036EC0E091AA0381E02E
:100A90008E0F8093AA038091BB00F0E0E757FC4FD4
:100AA00080838091AC0381116DC081E080938703C6
:100AB00084EA61C083E08093AD0310924203CFCFFC
:100AC00080914203803208F051C0E091420381E0FE
:100AD0008E0F809342038091BB00F0E0EE5DFC4FEF
:100AE0008083BDCF85EC8093BC001092AD038091D4
:100AF0004203803230F4E0914203F0E0EE5DFC4FBF
:100B000010826091420370E0E0914303F09144034E
:100B100082E293E019951092420336C084E08093FC
:100B2000AD031092210310922003E0914503F09150
:100B30004603199580912003811105C081E08093BF
:100B4000200310920003E091210381E08E0F809337
:100B50002103F0E0E050FD4F80818093BB00909135
:100B6000210380912003981708F479CF85E88093BA
:100B7000BC000AC085EC8093BC001092AD0304C099
:100B80001092AB030E943B03FF91EF91BF91AF9195
:100B90009F918F917F916F915F914F913F912F9195
:100BA0000F900BBE0F900FBE0F901F9018959F9245
:100BB000AF92BF92CF92DF92EF92FF920F931F936B
:100BC000CF93DF93EC01FC01EC58FF4F608385E08D
:100BD000982E969EF0011124E050FE4F80818E01E8
:100BE00002591F4FD8018C935E01BFE6AB0EB11CBA
:100BF0009181D5019C93119692819C936E01B1E7EE
:100C0000CB0ED11C9381D6019C937E01B2E7EB0EF3
:100C1000F11C9481F70190833697108262E00E9464
:100C2000D40962E0D5018C910E94D40961E0F601FB
:100C300080810E94D40961E0D7018C910E94D4097F
:100C40001EA21FA218A619A684EF91E09987888793
:100C5000188289E090E09B838A8388E691E1ADE188
:100C6000B2E48E8B9F8BA88FB98FF801808182317F
:100C700019F4359690821AC0833111F484E003C0D0
:100C8000843131F483E0FE01ED58FF4F80830EC0C4
:100C9000853111F482E0F7CF833011F481E0F3CF96
:100CA000823021F4FE01ED58FF4F108260E070E0C9
:100CB000CE010E94D90A1EA21FA218A619A60E9440
:100CC0007F0CC958DF4F688379838A839B83DF91C8
:100CD000CF911F910F91FF90EF90DF90CF90BF9039
:100CE000AF909F900895CF93DF93EC01662777270D
:100CF000681B790B83ED94E00E94D90ABE0184E55C
:100D000095E0DF91CF910C94D90A009769F0FC012E
:100D100001900020E9F73197AF01481B590BBC0146
:100D200082ED93E00C94000280E090E008958F92B1
:100D30009F92AF92BF920F931F93CF93DF93CDB744
:100D4000DEB7A1970FB6F894DEBF0FBECDBF19A2D4
:100D5000423008F44AE08E010F5D1F4F842E912C23
:100D6000A12CB12CA50194010E946E14E62FB901AB
:100D7000CA0101501109EA3014F4E05D01C0E95CD8
:100D8000D801EC93232B242B252B61F7C8010E945B
:100D90008506A1960FB6F894DEBF0FBECDBFDF91DA
:100DA000CF911F910F91BF90AF909F908F9008951A
:100DB0008F929F92AF92BF92CF92DF92EF92FF926B
:100DC0000F931F93CF93DF936B017C01142F9B0133
:100DD000AC010E949A18882319F083EF92E027C093
:100DE00046015701E894B7F82FEF3FEF4FE75FE771
:100DF000C501B4010E949A1881110DC02FEF3FEF79
:100E00004FE75FE7C501B4010E94AC1518161CF44A
:100E100087EF92E00CC02FEF3FEF4FE75FE4C70191
:100E2000B6010E94CE17181684F48BEF92E0DF9182
:100E3000CF911F910F91FF90EF90DF90CF90BF90D7
:100E4000AF909F908F900C9485062FEF3FEF4FE768
:100E50005FECC701B6010E94AC1587FDE6CF20E02C
:100E600030E0A901C701B6010E94AC1587FF0BC095
:100E70006DE282ED93E00E949302EC01F7FAF094A8
:100E8000F7F8F09402C0C0E0D0E000E060E070E06D
:100E900080E09FE3101741F020E030E040E251E4B1
:100EA0000E94B6150F5FF6CFA70196010E94CE14DF
:100EB0006B017C010E942F164B015C014AE00E94ED
:100EC0009706C80FD91F1123B9F1C501B4010E94BB
:100ED0005E169B01AC01C701B6010E94CD146B01E7
:100EE0007C016EE282ED93E00E949302C80FD91F4D
:100EF00020E030E040E251E4C701B6010E94DB1778
:100F00004B015C010E942F166B01E12CF12C4AE091
:100F1000C701B6010E949706C80FD91FC701B601C5
:100F20000E945E169B01AC01C501B4010E94CD1464
:100F30006B017C011150E1F6CE01DF91CF911F9141
:100F40000F91FF90EF90DF90CF90BF90AF909F9068
:100F50008F900895282F3091D103313208F04AC084
:100F60008091AD038111FCCF9091D00342E040937A
:100F7000AD032093AC032FEF2093AB031092AA0391
:100F80003093A903E0EBF3E0A9E8B3E020E03217E7
:100F900021F041914D932F5FFACF10928803209159
:100FA0008803990F922B9093880390918703913037
:100FB00061F410928703909188039093BB00909105
:100FC000BC0093FDF8CF95EC01C095EE9093BC006A
:100FD0009091AD039230E1F39091AB039F3F79F094
:100FE0008091AB03803241F08091AB03803331F0CC
:100FF00084E005C081E003C082E001C083E010927C
:10100000AF031092D1031092AE030895EF92FF92B6
:101010000F931F93CF93DF93162FD72FC42F909149
:10102000BE0421E02093AE039093D0031092AF034F
:101030001092D103682F8FE694E00E94C60381309E
:1010400009F068C080E00E94AA0781116BC08091FE
:10105000AD038111FCCF9091BE048C2FC13208F0FA
:1010600080E221E02093AD032093AC033FEF309367
:10107000AB031092AA03380F3093A903209388037F
:1010800020918803990F922B909388039091870366
:10109000913061F410928703909188039093BB0084
:1010A0009091BC0093FDF8CF95EC01C095EE909324
:1010B000BC009091AD039130E1F39091AA03981791
:1010C00010F48091AA03A9E8B3E0E5E6F3E090E02C
:1010D000981721F02D9121939F5FFACF10928503ED
:1010E00090938603E12EFD2E00E010E0D0E0909179
:1010F000860380918503981779F00C171D0764F417
:101100000F5F1F4F8FE694E00E947D03F7018193EC
:101110007F01EDCF8FEF06C081E0C017D10709F442
:1011200080E08195DF91CF911F910F91FF90EF901B
:101130000895CF93DF9360E08091BF040E94D409AB
:101140008091BF040E947C09EC0160E08091C004A2
:101150000E94D4098091C0040E947C09AC0121E066
:1011600030E0CD2B11F420E030E0220F331F81E07E
:10117000452B09F480E0822BDF91CF91089560E048
:1011800070E083ED94E00E94D90A60E070E084E5AD
:1011900095E00C94D90A1F93CF93DF93182FC5ECD9
:1011A000D4E061E089810E94D409612F8981DF91B7
:1011B000CF911F910C94A50990E0FC013197E23189
:1011C000F10508F04EC08827E658FF4F8F4F0C946A
:1011D000AF14809180008F7703C0809180008F7D55
:1011E00080938000089580918000877FF9CF84B537
:1011F0008F7702C084B58F7D84BD08958091B00043
:101200008F7703C08091B0008F7D8093B0000895E8
:10121000809190008F7707C0809190008F7D03C0F0
:1012200080919000877F8093900008958091A00026
:101230008F7707C08091A0008F7D03C08091A000B0
:10124000877F8093A0000895809120018F7707C049
:10125000809120018F7D03C080912001877F809342
:10126000200108953FB7F89480910E0790910F07E1
:10127000A0911007B091110726B5A89B05C02F3F7C
:1012800019F00196A11DB11D3FBFBA2FA92F982FAC
:101290008827820F911DA11DB11DBC01CD0142E027
:1012A000660F771F881F991F4A95D1F70895CF932E
:1012B000DF93EB019091BE0421E02093AE03909365
:1012C000D0031092AF031092D103682F8FE694E001
:1012D0000E94C603813061F441E050E0BE018FE618
:1012E00094E00E94990381E0DF91CF910C94AA07CA
:1012F0008FEFDF91CF910895CF93DF93282F30E0C8
:10130000F901E25BFC4F8491F901E85FFC4FD49155
:10131000F901EE53FD4FC491CC2391F081110E944D
:10132000DC08EC2FF0E0EE0FFF1FE855FD4FA59114
:10133000B491EC91ED2381E090E021F480E002C0D3
:1013400080E090E0DF91CF9108951F93CF93DF93DA
:10135000282F30E0F901E25BFC4F8491F901E85F4E
:10136000FC4FD491F901EE53FD4FC491CC23C1F051
:10137000162F81110E94DC08EC2FF0E0EE0FFF1F0A
:10138000E257FD4FA591B4919FB7F894111104C095
:101390008C91D095D82302C0EC91DE2BDC939FBFBB
:1013A000DF91CF911F910895CF93DF9390E0FC01DF
:1013B000E85FFC4F2491FC01EE53FD4F849188239C
:1013C00061F190E0880F991FFC01EC58FD4FC59129
:1013D000D491FC01E257FD4FA591B491611109C070
:1013E0009FB7F8948881209582238883EC912E23DF
:1013F0000BC0623061F49FB7F8948881322F30952A
:1014000083238883EC912E2B2C939FBF06C08FB72C
:10141000F894E8812E2B28838FBFDF91CF91089518
:101420001F93CF93DF93182FEB0161E00E94D40943
:10143000209711F460E004C0CF3FD10539F461E09A
:10144000812FDF91CF911F910C94A509E12FF0E03E
:10145000E25BFC4FE4918E2F90E0FC013197E2318A
:10146000F10508F09DC08827E457FF4F8F4F0C947B
:10147000AF1484B5806884BDC7BD97C084B5806251
:1014800084BDC8BD92C08091800080688093800038
:10149000D0938900C093880088C0809180008062CA
:1014A00080938000D0938B00C0938A007EC080918F
:1014B0008000886080938000D0938D00C0938C0062
:1014C00074C08091B00080688093B000C093B30076
:1014D0006CC08091B00080628093B000C093B40073
:1014E00064C080919000806880939000D0939900B0
:1014F000C09398005AC080919000806280939000C1
:10150000D0939B00C0939A0050C080919000886057
:1015100080939000D0939D00C0939C0046C0809122
:10152000A00080688093A0008091A0008F7B8093B2
:10153000A000D093A900C093A80037C08091A0005C
:1015400080628093A000D093AB00C093AA002DC00E
:101550008091A00088608093A000D093AD00C093DC
:10156000AC0023C080912001806880932001D0933B
:101570002901C093280119C08091200180628093C5
:101580002001D0932B01C0932A010FC0809120012C
:10159000886080932001D0932D01C0932C0105C059
:1015A000C038D1050CF04BCF45CFDF91CF911F91C3
:1015B0000895EF92FF920F931F93CF93DF93FC0157
:1015C0006F3F710519F014F06FEF70E0EB016130BF
:1015D0007F4F14F4C1E0DFEF808591858C179D0764
:1015E000D1F1D187C087D583C483DF01AF58BF4F06
:1015F000CF018E589F4F7C018F0100591F4FD7FF9D
:1016000012C060E08C910E94A5098FE090E00197E4
:10161000F1F761E0F70180810E94A509662777272D
:101620006C1B7D0B0EC061E08C910E94A5098FE0C0
:1016300090E00197F1F760E0F70180810E94A50931
:10164000BE01F8018081DF91CF911F910F91FF9032
:10165000EF900C94100ADF91CF911F910F91FF90A2
:10166000EF9008958F929F92AF92BF92CF92DF92A8
:10167000EF92FF926B017C010E9432094B015C01E9
:10168000C114D104E104F104F1F00E943209DC013B
:10169000CB0188199909AA09BB09883E9340A10585
:1016A000B10570F321E0C21AD108E108F10888EE13
:1016B000880E83E0981EA11CB11CC114D104E10462
:1016C000F10419F7DDCFFF90EF90DF90CF90BF903E
:1016D000AF909F908F9008952F923F924F925F927C
:1016E0006F927F928F929F92AF92BF92CF92DF9232
:1016F000EF92FF920F931F93CF93DF93CDB7DEB797
:10170000C25BD1090FB6F894DEBF0FBECDBF8BE22E
:101710008093ED0586E5E2E4F2E0DE01A95ABF4FD1
:1017200001900D928A95E1F786E5E8E9F2E0DE01A5
:10173000119601900D928A95E1F79E012F5F3F4F20
:10174000C355DF4F39832883CD5AD040CE01895A03
:101750009F4FC155DF4F99838883CF5AD040212CAA
:10176000312C8091ED0590E0281639060CF0ADC0C3
:10177000C155DF4FE881F981CF5AD0402191319195
:10178000C155DF4FF983E883CF5AD040C355DF4FAF
:10179000E881F981CD5AD040121613060CF066C0CC
:1017A000808191818C01000F111F080F191F032EDA
:1017B000000C440B550B60E472E48FE090E00E9453
:1017C000901469017A0161E080917B040E94D40940
:1017D00028EE33E0D8010E94B7142B013C018601AA
:1017E000D7FE02C00F5F1F4F15950795C801880FE0
:1017F000991F880F991F9C0125503109CF54DF4F45
:1018000039832883C15BD0400D2C000CEE08FF0803
:10181000812C912C540184149504A604B70498F5E6
:1018200061E080917B040E94A5090230110540F01F
:10183000CF54DF4F88819981C15BD0400197F1F788
:1018400060E080917B040E94A5090230110540F000
:10185000CF54DF4F88819981C15BD0400197F1F768
:10186000A8958C0C9D1CAE1CBF1CD5CF60817181CE
:10187000CB01880F991F680F791F072E000C880B6A
:10188000990B0E94320B61E080917B040E94D40985
:1018900060E080917B040E94A5096EE170E080E029
:1018A00090E00E94320BFFEF2F1A3F0AC355DF4F23
:1018B00028813981CD5AD0402E5F3F4FC355DF4F2D
:1018C00039832883CD5AD0404CCFCE54DF4F0FB64A
:1018D000F894DEBF0FBECDBFDF91CF911F910F9166
:1018E000FF90EF90DF90CF90BF90AF909F908F9040
:1018F0007F906F905F904F903F902F9008952FB7FB
:10190000F89460910A0770910B0780910C079091F1
:101910000D072FBF08951F920F920FB60F9211243B
:101920002F933F938F939F93AF93BF9380910A0719
:1019300090910B07A0910C07B0910D07309109070A
:1019400023E0230F2D3720F40196A11DB11D05C002
:1019500026E8230F0296A11DB11D2093090780934D
:101960000A0790930B07A0930C07B0930D07809183
:101970000E0790910F07A0911007B09111070196E3
:10198000A11DB11D80930E0790930F07A093100720
:10199000B0931107BF91AF919F918F913F912F917C
:1019A0000F900FBE0F901F901895CF92DF92EF927D
:1019B000FF920F931F93E82FF92F05C001501109D3
:1019C0002109310961F1908196239417B9F305C07B
:1019D000015011092109310911F1908196239413C5
:1019E000F7CFC12CD12CE12CF12C0AC08FEFC81AF3
:1019F000D80AE80AF80A0C151D052E053F0579F0EE
:101A000080818623841791F36C2D7D2D8E2D9F2D43
:101A10001F910F91FF90EF90DF90CF90089560E0BD
:101A200070E080E090E01F910F91FF90EF90DF90C9
:101A3000CF900895CF93DF93CDB7DEB767970FB6FA
:101A4000F894DEBF0FBECDBF789484B5826084BDAC
:101A500084B5816084BD85B5826085BD85B58160B2
:101A600085BD80916E00816080936E001092810030
:101A700080918100826080938100809181008160EB
:101A800080938100809180008160809380008091AC
:101A9000B10084608093B1008091B0008160809338
:101AA000B0008091910082608093910080919100BC
:101AB000816080939100809190008160809390007C
:101AC0008091A10082608093A1008091A10081603B
:101AD0008093A1008091A00081608093A0008091FC
:101AE0002101826080932101809121018160809396
:101AF00021018091200181608093200180917A00F2
:101B0000846080937A0080917A00826080937A006A
:101B100080917A00816080937A0080917A00806859
:101B200080937A001092C100E091E203F091E30308
:101B300082E08083E091DE03F091DF031082E09188
:101B4000E003F091E10380E180831092EA03E091E9
:101B5000E603F091E70386E08083E091E403F091EF
:101B6000E503808180618083E091E403F091E503E7
:101B7000808188608083E091E403F091E5038081B7
:101B800080688083E091E403F091E50380818F7D9C
:101B9000808380E090E0A3E8B2E480938204909395
:101BA0008304A0938404B093850410928604109259
:101BB0008704109288041092890410928A0410926B
:101BC0008B0410928C0410928D0410928E0410924B
:101BD0008F0410929004109291041092920410922B
:101BE000930410929404109295041092960410920B
:101BF0009704109298041092990410929A041092EB
:101C00009B0410929C0410929D0410929F041092C9
:101C10009E041092A1041092A0041092A3041092AA
:101C2000A2041092A4041092A5041092A60410928B
:101C3000A7041092A8041092A9041092AA0410926A
:101C4000AB041092AC041092AD041092AE0410924A
:101C5000AF0410928503109286031092AF03109286
:101C6000D1031092AD0311E01093AC0310928703DF
:101C700061E084E10E94A50961E085E10E94A50977
:101C80008091B9008E7F8093B9008091B9008D7FDB
:101C90008093B90088E48093B80085E48093BC0009
:101CA0008EEF91E090934603809345038FEF91E090
:101CB000909344038093430368EC70E080E090E0ED
:101CC0000E94320B1982BE016F5F7F4F8BE60E942C
:101CD000570964E670E080E090E00E94320B1A83BE
:101CE000BE016E5F7F4F8AE10E94570988E08B83B7
:101CF000BE016D5F7F4F8BE10E94570964E670E083
:101D000080E090E00E94320B04EF11E01C821D8203
:101D10001E821F82812C912C5401412C512C3201A6
:101D200046E060EB74E083E40E9406088091B00412
:101D30009091B104982789279827092E000CAA0BA7
:101D4000BB0B480E591E6A1E7B1E8091B2049091F7
:101D5000B304982789279827092E000CAA0BBB0BE0
:101D6000880E991EAA1EBB1E8091B4049091B504E2
:101D7000982789279827092E000CAA0BBB0B2C81CA
:101D80003D814E815F81280F391F4A1F5B1F2C83C5
:101D90003D834E835F830150110909F0C1CF94EF59
:101DA000C92EDD24D394E12CF12CC301B201A7018B
:101DB00096010E949014CA01B9010E9460166093B6
:101DC000A4047093A5048093A6049093A704C5016E
:101DD000B401A70196010E949014CA01B9010E94A2
:101DE00060166093A8047093A9048093AA0490934A
:101DF000AB046C817D818E819F81A70196010E9439
:101E00009014CA01B9010E9460166093AC047093EB
:101E1000AD048093AE049093AF0464E670E080E07C
:101E200090E00E94320B82ED93E00E945B02892BCE
:101E300091F182ED93E00E94390280936403813630
:101E400059F441E050E050936303409362031092D1
:101E500061031092600319C08D3651F482E090E066
:101E6000909363038093620391E090935F030DC0AE
:101E7000863329F40E94BF080E946C0B06C083378A
:101E800021F4109263031092620361E070E080E03D
:101E900090E00E94320B8091620390916303813045
:101EA000910531F008F44EC4029709F42DC461C4C1
:101EB000E0916003F0916103E830F10508F08FC113
:101EC0008827EE58FF4F8F4F0C94AF1420E030E07E
:101ED000A90160915B0370915C0380915D03909117
:101EE0005E030E94AC1581111AC080E090E00E9450
:101EF000FB0320E030E040E85FE36091570370911E
:101F000058038091590390915A030E94CE14609314
:101F10005703709358038093590390935A0320E01A
:101F200030E040E85FE360915B0370915C03809177
:101F30005D0390915E030E94CE146B017C0120E052
:101F400030E040EF51E40E94CE1718164CF0C092DA
:101F50005B03D0925C03E0925D03F0925E0308C0E5
:101F600010925B0310925C0310925D0310925E036B
:101F700084EB90E00E947306A1E0B0E0B1C00E9443
:101F80007F0C0091CB041091CC042091CD043091B2
:101F9000CE04DC01CB01801B910BA20BB30B489745
:101FA000A105B10518F0B1E0B093CA048091CA044C
:101FB000882309F45AC00E947F0C6093CB0470936D
:101FC000CC048093CD049093CE041092CA0480E098
:101FD0000E94CB0883E090E00197F1F781E00E9436
:101FE000CB0883E290E00197F1F780E00E94CB08F4
:101FF00060E08091C6040E94D4098091C60490E0FC
:10200000FC01E85FFC4F6491FC01EE53FD4FE4914D
:10201000F0E0EE0FFF1FE855FD4F8591949100E42D
:1020200012E42FE030E0462F0E94D50C61157105B7
:102030008105910551F06B017C012FEFC21AD20A84
:10204000E20AF20A3FE0F32203C0C12CD12C760150
:10205000C701B6010E9460166093CF047093D0044C
:102060008093D1049093D2040CC06091CF047091FE
:10207000D0048091D1049091D2040E9428166B0163
:102080007C01C701B6010E94601620E030E048E6FE
:1020900052E40E94B6154B015C0120E030E048ECB0
:1020A00053E40E94CE1787FF11C0CD28CE28CF2839
:1020B00069F020E030E040E252E4C501B4010E9442
:1020C000AC1587FF03C043E050E034C082E090E0ED
:1020D00038C00E949908833009F456C0A4E0B0E0EB
:1020E000B0936103A09360037AC00E94BF0864E6C6
:1020F00070E080E090E00E94320B27E030E0309307
:1021000061032093600381E090E00E94FB0367C0BD
:102110000E94BF0881E090E00E94FB030E949908A2
:10212000813069F028F0823089F0833069F157C03E
:1021300047E050E0509361034093600350C086E055
:1021400090E0909361038093600349C0A5E0B0E004
:10215000C7CF6AE67FEF83ED94E00E94D90A6AE672
:102160007FEF08C066E970E083ED94E00E94D90A31
:1021700066E970E084E595E00E94D90A68EE73E0B4
:1021800080E090E00E94320B109261031092600395
:1021900026C086EA9FEF0E94730620E030E040E010
:1021A00050E46091570370915803809159039091C6
:1021B0005A030E94CD146093570370935803809381
:1021C000590390935A036CE271E080E090E00E9422
:1021D000320B25E030E03093610320936003809060
:1021E000530390905403A0905503B0905603C5013B
:1021F000B4010E94B115C0905703D0905803E090ED
:102200005903F0905A03A70196010E94DB179B0126
:10221000AC0160914F0370915003809151039091F4
:1022200052030E94CE1460934F0370935003809327
:10223000510390935203C501B4010E9448189B01B9
:10224000AC01C701B6010E94DB179B01AC01609194
:102250004B0370914C0380914D0390914E030E946B
:10226000CE1460934B0370934C0380934D03909373
:102270004E030E947F0C6B017C018090470390907D
:102280004803A0904903B0904A030E947F0C6093DA
:102290004703709348038093490390934A034EE0A9
:1022A00060EB74E08BE30E940608811116C2C7013F
:1022B000B601681979098A099B090E945E1620E017
:1022C00030E04AE754E40E94B6152B013C01A0908F
:1022D000B004B090B104BA24AB24BA24B0929F04E5
:1022E000A0929E040091B2041091B304102701271C
:1022F00010271093A1040093A0042090B404309000
:10230000B5043224232432243092A3042092A20460
:10231000C0908204D0908304E0908404F0908504FF
:102320006091B8047091B904762767277627072E45
:10233000000C880B990B0E9460162091A404309128
:10234000A5044091A6045091A7040E94CD14A701B2
:1023500096010E94B6156C837D838E839F83609364
:1023600092047093930480939404909395046091E5
:10237000BA047091BB04762767277627072E000CD6
:10238000880B990B0E9460162091A8043091A90433
:102390004091AA045091AB040E94CD14A70196016C
:1023A0000E94B615688779878A879B876093960411
:1023B0007093970480939804909399046091BC045F
:1023C0007091BD04762767277627072E000C880BAF
:1023D000990B0E9460162091AC043091AD0440919D
:1023E000AE045091AF040E94CD14A70196010E9443
:1023F000B615688B798B8A8B9B8B60939A0470934C
:102400009B0480939C0490939D04B801110F880B4A
:10241000990B0E9460166B017C01B101032C000C2A
:10242000880B990B0E9460169B01AC010E94DB1780
:102430006C8B7D8B8E8B9F8BA7019601C701B6019C
:102440000E94DB172C893D894E895F890E94CE143A
:102450000E9456186C877D878E879F87B501BB0CBD
:10246000880B990B0E9460164B015C012C853D8501
:102470004E855F850E944D1520E030E044E353E433
:102480000E94DB172AED3FE049E450E40E94B615B4
:102490006C877D878E879F87A5019401C501B40154
:1024A0000E94DB172C893D894E895F890E94CE14DA
:1024B0000E9456189B01AC01C701B6010E944D1540
:1024C00020E030E044E353E40E94DB172AED3FE0D4
:1024D00049E450E40E94B6156B017C0128853985DA
:1024E0004A855B85C301B201121413045CF50E9496
:1024F000DB179B01AC016091860470918704809189
:102500008804909189040E94CD146093860470938E
:10251000870480938804909389042C813D814E81A7
:102520005F81C301B2010E94DB179B01AC01609186
:102530008A0470918B0480918C0490918D040E9488
:10254000CE142AC00E94DB179B01AC016091860467
:102550007091870480918804909189040E94CE1420
:102560006093860470938704809388049093890411
:102570002C813D814E815F81C301B2010E94DB1736
:102580009B01AC0160918A0470918B0480918C0452
:1025900090918D040E94CD1460938A0470938B04F3
:1025A00080938C0490938D04288939894A895B89AA
:1025B000C301B2010E94DB1720918E0430918F0479
:1025C00040919004509191040E94CE144B015C0103
:1025D00020E030E044EB53E40E94B6150E949B16C5
:1025E00020E030E044EB53E40E94DB179B01AC0198
:1025F000C501B4010E94CD144B015C0120E030E024
:1026000044E353E40E94CE1718164CF080928E04D7
:1026100090928F04A0929004B092910410C020E098
:1026200030E044EB53E4C501B4010E94CD14609343
:102630008E0470938F04809390049093910428E407
:1026400031EE4AE75FE360918A0470918B048091D8
:102650008C0490918D040E94DB174B015C012AE0F1
:1026600037ED43EA5CE3C701B6010E94DB179B012B
:10267000AC01C501B4010E94CE1460938A0470932A
:102680008B0480938C0490938D0428E431EE4AE708
:102690005FE3609186047091870480918804909133
:1026A00089040E94DB176B017C012AE037ED43EAC5
:1026B0005CE36C857D858E859F850E94DB179B0181
:1026C000AC01C701B6010E94CE14609386047093DA
:1026D0008704809388049093890425E33AEF4EE8B9
:1026E0005CE360918E0470918F04809190049091CE
:1026F00091040E94DB1760935303709354038093FB
:1027000055039093560335C080915F03882321F0D1
:102710000E94BF0810925F03809164038333C1F06D
:1027200068F4813391F0823321F56AE67FEF83ED1F
:1027300094E00E94D90A6AE67FEF12C08433A9F0C0
:102740008236B9F40E94BF0814C084EB90E00FC039
:1027500066E970E083ED94E00E94D90A66E970E0D2
:1027600084E595E00E94D90A04C08CE49FEF0E94A2
:1027700073060E94020357CB81E090E09093EF052F
:102780008093EE051092F0061092F1061092F20678
:102790001092F3061092F4061092F5061092F606C7
:1027A0001092F7061092F8061092F9061092FA06A7
:1027B0001092FB061092FC061092FD061092FF0686
:1027C0001092FE0610920007109201071092020765
:1027D0001092030710920407109205071092060743
:1027E0001092070710920807E2EDF3E013821282BD
:1027F00088EE93E0A0E0B0E084839583A683B7835E
:1028000022E232E03183208325EC30E035872487D3
:1028100024EC30E03787268720EC30E0318B208BAA
:1028200021EC30E0338B228B22EC30E0358B248B93
:1028300026EC30E0378B268B118E128E138E148E81
:10284000EFE6F4E01382128284839583A683B78334
:1028500084E392E091838083E5ECF4E08CE3808371
:1028600081E481838AE08283EFEBF4E08DE380836F
:1028700082E4818389E082831092D5051092D60587
:102880001092D7051092D9058093DA051092DF05D2
:102890001092E0051092E1051092E3058093E405A3
:1028A00061E083ED94E00E94D70562E084E595E065
:1028B0000E94D705ECE7F4E085E0808384E0818323
:1028C00081E0828389E68093BE04E9EEF5E0108220
:1028D000118212828DE280937B040895A1E21A2E68
:1028E000AA1BBB1BFD010DC0AA1FBB1FEE1FFF1FB4
:1028F000A217B307E407F50720F0A21BB30BE40B04
:10290000F50B661F771F881F991F1A9469F760954A
:102910007095809590959B01AC01BD01CF01089504
:10292000052E97FB1EF400940E94A71457FD07D0B4
:102930000E946E1407FC03D04EF40C94A71450951B
:102940004095309521953F4F4F4F5F4F089590959B
:102950008095709561957F4F8F4F9F4F0895EE0F33
:10296000FF1F881F8BBF0790F691E02D19940E94DE
:10297000BE14B7FF0895821B930B0895A29FB00168
:10298000B39FC001A39F700D811D1124911DB29FA3
:10299000700D811D1124911D08955058BB27AA2741
:1029A0000E94E5140C9468170E942F1738F00E94BB
:1029B000361720F039F49F3F19F426F40C940517CC
:1029C0000EF4E095E7FB0C94D616E92F0E948D17C4
:1029D00058F3BA17620773078407950720F079F454
:1029E000A6F50C94C7170EF4E0950B2EBA2FA02D68
:1029F0000B01B90190010C01CA01A0011124FF27AC
:102A0000591B99F0593F50F4503E68F11A16F040A6
:102A1000A22F232F342F4427585FF3CF46953795A5
:102A20002795A795F0405395C9F77EF41F16BA0B6A
:102A3000620B730B840BBAF09150A1F0FF0FBB1F18
:102A4000661F771F881FC2F70EC0BA0F621F731F61
:102A5000841F48F4879577956795B795F7959E3FBE
:102A600008F0B0CF9395880F08F09927EE0F97954F
:102A7000879508950E942F1760F080E891E009F48F
:102A80009EEF0E94361728F040E851E071F45EEFA7
:102A90000CC00C9405170C94C717E92FE0780E941E
:102AA0008D1740F3092E052AB1F32617370748077B
:102AB000590738F00E2E07F8E02569F0E025E064AC
:102AC0000AC0EF6307F8009407FADB01B9019D0122
:102AD000DC01CA01AD01EF930E94CD150E94681779
:102AE0000E947D155F91552339F02BED3FE049E4BD
:102AF00050FD49EC0C94CE140895DF93DD27B92FD7
:102B0000BF7740E85FE31616170648075B0718F41F
:102B1000D92F0E94D3179F938F937F936F930E9417
:102B20009618ECE3F1E00E9408170E9468172F91B5
:102B30003F914F915F910E94EE17DD2351F0905825
:102B4000A2EA2AED3FE049EC5FE3D0785D270E94DE
:102B5000E514DF910C9468170E94B21608F481E026
:102B600008950E943F17E3950C9479170E94CA15A7
:102B70000C9468170E94361758F00E942F1740F0E7
:102B800029F45F3F29F00C94D61651110C94C81704
:102B90000C9405170E948D1768F39923B1F3552300
:102BA00091F3951B550BBB27AA2762177307840760
:102BB00038F09F5F5F4F220F331F441FAA1FA9F3F6
:102BC00035D00E2E3AF0E0E832D091505040E695E4
:102BD000001CCAF72BD0FE2F29D0660F771F881F45
:102BE000BB1F261737074807AB07B0E809F0BB0B38
:102BF000802DBF01FF2793585F4F3AF09E3F51054C
:102C000078F00C94D6160C94C8175F3FE4F3983E06
:102C1000D4F3869577956795B795F7959F5FC9F734
:102C2000880F911D9695879597F90895E1E0660FB5
:102C3000771F881FBB1F621773078407BA0720F02E
:102C4000621B730B840BBA0BEE1F88F7E095089597
:102C50000E942F166894B1110C94C81708950E9411
:102C6000951788F09F5798F0B92F9927B751B0F072
:102C7000E1F0660F771F881F991F1AF0BA95C9F700
:102C800014C0B13091F00E94C717B1E008950C94C0
:102C9000C717672F782F8827B85F39F0B93FCCF373
:102CA000869577956795B395D9F73EF4909580957D
:102CB000709561957F4F8F4F9F4F0895E89409C09D
:102CC00097FB3EF490958095709561957F4F8F4F5F
:102CD0009F4F9923A9F0F92F96E9BB279395F69575
:102CE000879577956795B795F111F8CFFAF4BB0FF3
:102CF00011F460FF1BC06F5F7F4F8F4F9F4F16C057
:102D0000882311F096E911C0772321F09EE8872FE0
:102D1000762F05C0662371F096E8862F70E060E09C
:102D20002AF09A95660F771F881FDAF7880F969515
:102D3000879597F908950E94AF1790F09F3748F450
:102D4000911116F00C94C81760E070E080E89FEBDA
:102D5000089526F41B16611D711D811D0C94DC164F
:102D60000C94F716990F0008550FAA0BE0E8FEEF38
:102D700016161706E807F907C0F012161306E4073F
:102D8000F50798F0621B730B840B950B39F40A2638
:102D900061F0232B242B252B21F408950A2609F416
:102DA000A140A6958FEF811D811D089597F99F671A
:102DB00080E870E060E00895882371F4772321F0C3
:102DC0009850872B762F07C0662311F499270DC0E2
:102DD0009051862B70E060E02AF09A95660F771F7D
:102DE000881FDAF7880F9695879597F908959F3F82
:102DF00031F0915020F4879577956795B795880FB6
:102E0000911D9695879597F908959FEF80EC089509
:102E1000DF93CF931F930F93FF92EF92DF927B018B
:102E20008C01689406C0DA2EEF010E94EE17FE01B5
:102E3000E894A5912591359145915591A6F3EF011F
:102E40000E94E514FE019701A801DA9469F7DF906A
:102E5000EF90FF900F911F91CF91DF910895002483
:102E60000A941616170618060906089500240A94EF
:102E7000121613061406050608950C9405170E94F1
:102E80009517D8F3E894E0E0BB279F57F0F02AEDC0
:102E90003FE049EC06C0EE0FBB0F661F771F881F8F
:102EA00028F0B23A62077307840728F0B25A620B1F
:102EB000730B840BE3959A9572F7803830F49A95EA
:102EC000BB0F661F771F881FD2F790480C94F91626
:102ED000092E0394000C11F4882352F0BB0F40F428
:102EE000BF2B11F460FF04C06F5F7F4F8F4F9F4F68
:102EF0000895EF93E0FF07C0A2EA2AED3FE049EC16
:102F00005FEB0E94E5140E9468170F90039401FC88
:102F10009058E9E6F1E00C94A61857FD9058440F3C
:102F2000551F59F05F3F71F04795880F97FB991F28
:102F300061F09F3F79F087950895121613061406E5
:102F4000551FF2CF4695F1DF08C016161706180672
:102F5000991FF1CF869571056105089408950E9427
:102F60009517A0F0BEE7B91788F4BB279F3860F427
:102F70001616B11D672F782F8827985FF7CF869593
:102F800077956795B11D93959639C8F30895E894A0
:102F9000BB2766277727CB0197F908950E94B216C1
:102FA00008F48FEF08959B01AC0160E070E080E8C9
:102FB0009FE30C94B6150E94EE170C9468170E94BC
:102FC0002F1738F00E94361720F0952311F00C943B
:102FD000D6160C94051711240C94C8170E948D174F
:102FE00070F3959FC1F3950F50E0551F629FF0015C
:102FF000729FBB27F00DB11D639FAA27F00DB11D75
:10300000AA1F649F6627B00DA11D661F829F2227FD
:10301000B00DA11D621F739FB00DA11D621F839F84
:10302000A00D611D221F749F3327A00D611D231F5A
:10303000849F600D211D822F762F6A2F11249F57A8
:1030400050409AF0F1F088234AF0EE0FFF1FBB1FAB
:10305000661F771F881F91505040A9F79E3F51056A
:1030600080F00C94D6160C94C8175F3FE4F3983E9A
:10307000D4F3869577956795B795F795E7959F5F14
:10308000C1F7FE2B880F911D9695879597F90895A6
:103090009F930E943F170F9007FCEE5F0C947917E7
:1030A00019F416F40C9405170C94F7160E94951752
:1030B000B8F39923C9F3B6F39F57550B87FF0E94C6
:1030C0009F180024A0E640EA9001805856959795F5
:1030D00028F4805C660F771F881F20F026173707BB
:1030E000480730F4621B730B840B202931294A2BCB
:1030F000A69517940794202531254A2758F7660F7F
:10310000771F881F20F026173707480730F4620B17
:10311000730B840B200D311D411DA09581F7B90162
:10312000842F9158880F9695879508959B01AC013F
:103130000C94DB170E94B216880B990B08959150DE
:103140005040660F771F881FD2F708959F938F9383
:103150007F936F93FF93EF939B01AC010E94DB176A
:10316000EF91FF910E9408172F913F914F915F912E
:103170000C94DB1781E090E0F8940C94BF18F8945D
:02318000FFCF7F
:103182000000000000132A0B3130122B0A2F2E00F0
:10319200000000000000000000000000000000002D
:1031A2000000930200022A02E0025B0239024D0291
:1031B20000000000C6039903F6036D0391037D032B
:1031C2006E034B022A02EE017201000072017201CB
:1031D200720172017201EE01EE01EE01EE01B8011F
:1031E200EE018801000088018801880188018801B8
:1031F200EE01EE01EE01EE012A024B02B8010000DF
:10320200B801B801B801B801B8014B024B024B0238
:103212004B02930293022A02C800C80064003200E3
:10322200320032003200320032003200320032000C
:103232006400320064006400320032003200320066
:1032420032003200320032003200320064003200BA
:103252006400640032003200320032003200320078
:103262003200320032006400320064002C012C0073
:103272000D0A006E616E00696E66006F7666000070
:00000001FF
